{
  "contractName": "Lottery",
  "abi": [
    {
      "inputs": [
        {
          "internalType": "uint256",
          "name": "fee",
          "type": "uint256"
        }
      ],
      "stateMutability": "nonpayable",
      "type": "constructor"
    },
    {
      "inputs": [],
      "name": "admin",
      "outputs": [
        {
          "internalType": "address",
          "name": "",
          "type": "address"
        }
      ],
      "stateMutability": "view",
      "type": "function",
      "constant": true
    },
    {
      "inputs": [],
      "name": "count",
      "outputs": [
        {
          "internalType": "uint256",
          "name": "",
          "type": "uint256"
        }
      ],
      "stateMutability": "view",
      "type": "function",
      "constant": true
    },
    {
      "inputs": [],
      "name": "currentStatus",
      "outputs": [
        {
          "internalType": "enum Lottery.Status",
          "name": "",
          "type": "uint8"
        }
      ],
      "stateMutability": "view",
      "type": "function",
      "constant": true
    },
    {
      "inputs": [],
      "name": "lotteryFee",
      "outputs": [
        {
          "internalType": "uint256",
          "name": "",
          "type": "uint256"
        }
      ],
      "stateMutability": "view",
      "type": "function",
      "constant": true
    },
    {
      "inputs": [
        {
          "internalType": "uint256",
          "name": "",
          "type": "uint256"
        }
      ],
      "name": "players",
      "outputs": [
        {
          "internalType": "address payable",
          "name": "",
          "type": "address"
        }
      ],
      "stateMutability": "view",
      "type": "function",
      "constant": true
    },
    {
      "inputs": [],
      "name": "size",
      "outputs": [
        {
          "internalType": "uint256",
          "name": "",
          "type": "uint256"
        }
      ],
      "stateMutability": "view",
      "type": "function",
      "constant": true
    },
    {
      "inputs": [
        {
          "internalType": "uint256",
          "name": "playerCount",
          "type": "uint256"
        },
        {
          "internalType": "uint256",
          "name": "betSize",
          "type": "uint256"
        }
      ],
      "name": "initBet",
      "outputs": [],
      "stateMutability": "payable",
      "type": "function",
      "payable": true
    },
    {
      "inputs": [],
      "name": "bet",
      "outputs": [],
      "stateMutability": "payable",
      "type": "function",
      "payable": true
    },
    {
      "inputs": [],
      "name": "cancelBet",
      "outputs": [],
      "stateMutability": "nonpayable",
      "type": "function"
    },
    {
      "inputs": [],
      "name": "getPlayers",
      "outputs": [
        {
          "internalType": "address payable[]",
          "name": "",
          "type": "address[]"
        }
      ],
      "stateMutability": "view",
      "type": "function",
      "constant": true
    }
  ],
  "bytecode": "0x608060405260008060006101000a81548160ff021916908360018111156200002c576200002b62000106565b5b02179055503480156200003e57600080fd5b50604051620011d9380380620011d9833981810160405281019062000064919062000175565b600181118015620000755750606381105b620000b7576040517f08c379a0000000000000000000000000000000000000000000000000000000008152600401620000ae9062000208565b60405180910390fd5b8060058190555033600260006101000a81548173ffffffffffffffffffffffffffffffffffffffff021916908373ffffffffffffffffffffffffffffffffffffffff160217905550506200022a565b7f4e487b7100000000000000000000000000000000000000000000000000000000600052602160045260246000fd5b600080fd5b6000819050919050565b6200014f816200013a565b81146200015b57600080fd5b50565b6000815190506200016f8162000144565b92915050565b6000602082840312156200018e576200018d62000135565b5b60006200019e848285016200015e565b91505092915050565b600082825260208201905092915050565b7f6665652073686f756c64206265206265747765656e203120616e642039390000600082015250565b6000620001f0601e83620001a7565b9150620001fd82620001b8565b602082019050919050565b600060208201905081810360008301526200022381620001e1565b9050919050565b610f9f806200023a6000396000f3fe6080604052600436106100915760003560e01c8063949d225d11610059578063949d225d14610138578063ef8a923514610163578063f20735211461018e578063f71d96cb146101aa578063f851a440146101e757610091565b806306661abd1461009657806311610c25146100c157806378aa08ed146100cb5780637b6d79f1146100f65780638b5b9ccc1461010d575b600080fd5b3480156100a257600080fd5b506100ab610212565b6040516100b8919061093c565b60405180910390f35b6100c9610218565b005b3480156100d757600080fd5b506100e0610458565b6040516100ed919061093c565b60405180910390f35b34801561010257600080fd5b5061010b61045e565b005b34801561011957600080fd5b50610122610659565b60405161012f9190610a47565b60405180910390f35b34801561014457600080fd5b5061014d6106e7565b60405161015a919061093c565b60405180910390f35b34801561016f57600080fd5b506101786106ed565b6040516101859190610ae0565b60405180910390f35b6101a860048036038101906101a39190610b2c565b6106fe565b005b3480156101b657600080fd5b506101d160048036038101906101cc9190610b6c565b610840565b6040516101de9190610ba8565b60405180910390f35b3480156101f357600080fd5b506101fc61087f565b6040516102099190610be4565b60405180910390f35b60035481565b600180600181111561022d5761022c610a69565b5b60008054906101000a900460ff16600181111561024d5761024c610a69565b5b1461028d576040517f08c379a000000000000000000000000000000000000000000000000000000000815260040161028490610c5c565b60405180910390fd5b60045434146102d1576040517f08c379a00000000000000000000000000000000000000000000000000000000081526004016102c890610cee565b60405180910390fd5b6001339080600181540180825580915050600190039060005260206000200160009091909190916101000a81548173ffffffffffffffffffffffffffffffffffffffff021916908373ffffffffffffffffffffffffffffffffffffffff16021790555060018054905060035414156104555760006103506003546108a5565b90506001818154811061036657610365610d0e565b5b9060005260206000200160009054906101000a900473ffffffffffffffffffffffffffffffffffffffff1673ffffffffffffffffffffffffffffffffffffffff166108fc606460055460646103bb9190610d6c565b6003546004546103cb9190610da0565b6103d59190610da0565b6103df9190610e29565b9081150290604051600060405180830381858888f1935050505015801561040a573d6000803e3d6000fd5b5060008060006101000a81548160ff021916908360018111156104305761042f610a69565b5b0217905550600060038190555060006004819055506001600061045391906108e5565b505b50565b60055481565b3373ffffffffffffffffffffffffffffffffffffffff16600260009054906101000a900473ffffffffffffffffffffffffffffffffffffffff1673ffffffffffffffffffffffffffffffffffffffff16146104ee576040517f08c379a00000000000000000000000000000000000000000000000000000000081526004016104e590610ea6565b60405180910390fd5b600180600181111561050357610502610a69565b5b60008054906101000a900460ff16600181111561052357610522610a69565b5b14610563576040517f08c379a000000000000000000000000000000000000000000000000000000000815260040161055a90610c5c565b60405180910390fd5b60005b60018054905081101561060d576001818154811061058757610586610d0e565b5b9060005260206000200160009054906101000a900473ffffffffffffffffffffffffffffffffffffffff1673ffffffffffffffffffffffffffffffffffffffff166108fc6004549081150290604051600060405180830381858888f193505050501580156105f9573d6000803e3d6000fd5b50808061060590610ec6565b915050610566565b506001600061061c91906108e5565b6000600381905550600060048190555060008060006101000a81548160ff0219169083600181111561065157610650610a69565b5b021790555050565b606060018054806020026020016040519081016040528092919081815260200182805480156106dd57602002820191906000526020600020905b8160009054906101000a900473ffffffffffffffffffffffffffffffffffffffff1673ffffffffffffffffffffffffffffffffffffffff1681526020019060010190808311610693575b5050505050905090565b60045481565b60008054906101000a900460ff1681565b3373ffffffffffffffffffffffffffffffffffffffff16600260009054906101000a900473ffffffffffffffffffffffffffffffffffffffff1673ffffffffffffffffffffffffffffffffffffffff161461078e576040517f08c379a000000000000000000000000000000000000000000000000000000000815260040161078590610ea6565b60405180910390fd5b60008060018111156107a3576107a2610a69565b5b60008054906101000a900460ff1660018111156107c3576107c2610a69565b5b14610803576040517f08c379a00000000000000000000000000000000000000000000000000000000081526004016107fa90610c5c565b60405180910390fd5b826003819055508160048190555060016000806101000a81548160ff0219169083600181111561083657610835610a69565b5b0217905550505050565b6001818154811061085057600080fd5b906000526020600020016000915054906101000a900473ffffffffffffffffffffffffffffffffffffffff1681565b600260009054906101000a900473ffffffffffffffffffffffffffffffffffffffff1681565b60008142446040516020016108bb929190610f0f565b6040516020818303038152906040528051906020012060001c6108de9190610f38565b9050919050565b50805460008255906000526020600020908101906109039190610906565b50565b5b8082111561091f576000816000905550600101610907565b5090565b6000819050919050565b61093681610923565b82525050565b6000602082019050610951600083018461092d565b92915050565b600081519050919050565b600082825260208201905092915050565b6000819050602082019050919050565b600073ffffffffffffffffffffffffffffffffffffffff82169050919050565b60006109ae82610983565b9050919050565b6109be816109a3565b82525050565b60006109d083836109b5565b60208301905092915050565b6000602082019050919050565b60006109f482610957565b6109fe8185610962565b9350610a0983610973565b8060005b83811015610a3a578151610a2188826109c4565b9750610a2c836109dc565b925050600181019050610a0d565b5085935050505092915050565b60006020820190508181036000830152610a6181846109e9565b905092915050565b7f4e487b7100000000000000000000000000000000000000000000000000000000600052602160045260246000fd5b60028110610aa957610aa8610a69565b5b50565b6000819050610aba82610a98565b919050565b6000610aca82610aac565b9050919050565b610ada81610abf565b82525050565b6000602082019050610af56000830184610ad1565b92915050565b600080fd5b610b0981610923565b8114610b1457600080fd5b50565b600081359050610b2681610b00565b92915050565b60008060408385031215610b4357610b42610afb565b5b6000610b5185828601610b17565b9250506020610b6285828601610b17565b9150509250929050565b600060208284031215610b8257610b81610afb565b5b6000610b9084828501610b17565b91505092915050565b610ba2816109a3565b82525050565b6000602082019050610bbd6000830184610b99565b92915050565b6000610bce82610983565b9050919050565b610bde81610bc3565b82525050565b6000602082019050610bf96000830184610bd5565b92915050565b600082825260208201905092915050565b7f43757272656e742073746174757320697320646966666572656e742e00000000600082015250565b6000610c46601c83610bff565b9150610c5182610c10565b602082019050919050565b60006020820190508181036000830152610c7581610c39565b9050919050565b7f43616e20626574206f6e6c7920707265646566696e6564205745492076616c7560008201527f652e000000000000000000000000000000000000000000000000000000000000602082015250565b6000610cd8602283610bff565b9150610ce382610c7c565b604082019050919050565b60006020820190508181036000830152610d0781610ccb565b9050919050565b7f4e487b7100000000000000000000000000000000000000000000000000000000600052603260045260246000fd5b7f4e487b7100000000000000000000000000000000000000000000000000000000600052601160045260246000fd5b6000610d7782610923565b9150610d8283610923565b925082821015610d9557610d94610d3d565b5b828203905092915050565b6000610dab82610923565b9150610db683610923565b9250817fffffffffffffffffffffffffffffffffffffffffffffffffffffffffffffffff0483118215151615610def57610dee610d3d565b5b828202905092915050565b7f4e487b7100000000000000000000000000000000000000000000000000000000600052601260045260246000fd5b6000610e3482610923565b9150610e3f83610923565b925082610e4f57610e4e610dfa565b5b828204905092915050565b7f4f6e6c792061646d696e20616374696f6e2e0000000000000000000000000000600082015250565b6000610e90601283610bff565b9150610e9b82610e5a565b602082019050919050565b60006020820190508181036000830152610ebf81610e83565b9050919050565b6000610ed182610923565b91507fffffffffffffffffffffffffffffffffffffffffffffffffffffffffffffffff821415610f0457610f03610d3d565b5b600182019050919050565b6000604082019050610f24600083018561092d565b610f31602083018461092d565b9392505050565b6000610f4382610923565b9150610f4e83610923565b925082610f5e57610f5d610dfa565b5b82820690509291505056fea2646970667358221220394f4bfba17a99858ed6b4704ad5a2440a4711b49d5c13f45e1e4f9364cbb5e964736f6c634300080b0033",
  "immutableReferences": {},
  "source": "// SPDX-License-Identifier: MIT\npragma solidity >=0.4.22 <0.9.0;\n\ncontract Lottery {\n  enum Status {\n    IDLE,\n    BETTING\n  }\n  Status public currentStatus = Status.IDLE;\n  address payable[] public players;\n  address public admin;\n  uint public count;\n  uint public size;\n  uint public lotteryFee;\n\n  constructor(uint fee) {\n    require(fee > 1 && fee < 99, 'fee should be between 1 and 99');\n    lotteryFee = fee;\n    admin = msg.sender;\n  }\n\n  function initBet(uint playerCount, uint betSize) external payable onlyAdmin() inStatus(Status.IDLE) {\n    count = playerCount;\n    size = betSize;\n    currentStatus = Status.BETTING;\n  }\n\n  function bet() external payable inStatus(Status.BETTING) {\n    require(msg.value == size, 'Can bet only predefined WEI value.');\n    players.push(payable(msg.sender));\n    if (count == players.length) {\n      uint winner = randomIndex(count);\n      players[winner].transfer((size * count) * (100 - lotteryFee) / 100);\n      currentStatus = Status.IDLE;\n      count = 0;\n      size = 0;\n      delete players;\n    }\n  }\n\n  function cancelBet() external onlyAdmin() inStatus(Status.BETTING) {\n    for (uint i = 0; i < players.length; i++) {\n      players[i].transfer(size);\n    }\n    delete players;\n    count = 0;\n    size = 0;\n    currentStatus = Status.IDLE;\n  }\n\n  function getPlayers() public view returns(address payable[] memory) {\n    return players;\n  }\n\n  function randomIndex(uint mod) internal view returns(uint) {\n    return uint(keccak256(abi.encode(block.timestamp, block.difficulty))) % mod;\n  }\n\n  modifier inStatus(Status status) {\n    require(currentStatus == status, 'Current status is different.');\n    _;\n  }\n\n  modifier onlyAdmin() {\n    require(admin == msg.sender, 'Only admin action.');\n    _;\n  }\n}\n",
  "sourcePath": "/var/www/html/dapp30/blockchain-lottery/contracts/Lottery.sol",
  "compiler": {
    "name": "solc",
    "version": "0.8.11+commit.d7f03943.Emscripten.clang"
  },
  "schemaVersion": "3.4.4",
  "updatedAt": "2022-06-09T17:42:26.432Z",
  "networkType": "ethereum",
  "devdoc": {
    "kind": "dev",
    "methods": {},
    "version": 1
  },
  "userdoc": {
    "kind": "user",
    "methods": {},
    "version": 1
  }
}